:1000000012C074C02BC02AC029C028C027C026C077
:1000100025C024C023C022C021C020C01FC01EC0D4
:100020001DC01CC01BC011241FBECFE5D4E0DEBF25
:10003000CDBF10E0A0E6B0E0EEEBF5E002C0059029
:100040000D92A236B107D9F710E0A2E6B0E001C0E8
:100050001D92A438B107E1F78AD2AFC2D1CF81E0B7
:1000600080936200089581E080936300089580E0AA
:1000700008950895089508950895089580E00895D5
:1000800080E00895C7988FEF93D2C79A0895C798D4
:1000900081EE8ED2C79A0895C79882EE89D2C79A08
:1000A0000895C698F4DFF8DF0895EF92FF920F935A
:1000B0001F93F82EC79881E67BD2E82E0EC01091D0
:1000C0006000009161008FEF73D2E12FF02F8193D8
:1000D000F0936100E0936000FA94FF2081F7C79AE3
:1000E0008E2D1F910F91FF90EF9008951F920F9208
:1000F0000FB60F9211242F933F934F935F936F93FB
:100100007F938F939F93AF93BF93CF93DF93EF939F
:10011000FF93B8DFC82F86FF05C081E0809362009F
:1001200080E2C3DFC5FF03C081E080936300FF91DD
:10013000EF91DF91CF91BF91AF919F918F917F917F
:100140006F915F914F913F912F910F900FBE0F9044
:100150001F9018950F931F93CF93DF93EC01162FE9
:10016000C79888EA25D2082F03C0899121D211505F
:100170001123D9F7C79A802FDF91CF911F910F914B
:1001800008950F931F93CF93DF93EC01162FC79819
:1001900080EA0ED2082F03C089910AD21150112390
:1001A000D9F7C79A802FDF91CF911F910F910895B2
:1001B0000F931F93062FC7988062FAD1182F802FB4
:1001C000F7D1C79A812F1F910F9108950F931F9315
:1001D000CF93DF93EB01142FC7988062E9D1082FEA
:1001E00003C08991E5D111501123D9F7C79A802F07
:1001F000DF91CF911F910F910895C798D9D18FEFBB
:10020000D7D1C79A089586E0F8DF682F606886E046
:10021000CFDF08951F93182F84E0EFDF1295107F32
:10022000182B84E0612FC4DF1F9108951F93182FAE
:1002300084E0E3DF182B84E0612FBADF1F9108957B
:10024000882329F482E0D9DF682F6E7F1AC08130BD
:1002500029F482E0D2DF682F6D7F13C0823021F451
:10026000CCDF682F6B7F0DC0833029F482E0C5DFBF
:10027000682F677F06C0843039F482E0BEDF682FC4
:100280006F7E82E095DF0895853031F482E0B5DF3E
:10029000682F6F7D82E08CDF0895882329F482E047
:1002A000ACDF682F61601AC0813029F482E0A5DFDD
:1002B000682F626013C0823021F49FDF682F646072
:1002C0000DC0833029F482E098DF682F686006C093
:1002D000843039F482E091DF682F606182E068DF6A
:1002E0000895853031F482E088DF682F606282E013
:1002F0005FDF0895882329F481E07FDF682F6E7F18
:100300001AC0813021F479DF682F6D7F14C08230EC
:1003100029F481E072DF682F6B7F0DC0833029F4F0
:1003200081E06BDF682F677F06C0843039F481E09D
:1003300064DF682F6F7E81E03BDF0895853031F404
:1003400081E05BDF682F6F7D81E032DF08958823D5
:1003500029F481E052DF682F61601AC0813021F4F6
:100360004CDF682F626014C0823029F481E045DFE1
:10037000682F64600DC0833029F481E03EDF682F70
:10038000686006C0843039F481E037DF682F60612F
:1003900081E00EDF0895853031F481E02EDF682F93
:1003A000606281E005DF0895C69880E026DF682F4F
:1003B000616080E0FDDE84E091E00197F1F7C69A8C
:1003C0000895C69880E019DF682F6E7F80E0F0DE28
:1003D00084E091E00197F1F70895863029F480E0F8
:1003E0000CDF682F6F7B06C0853039F480E005DFB5
:1003F000682F6F7D80E0DCDE0895843031F480E08A
:10040000FCDE682F6F7E80E0D3DE0895863029F40D
:1004100080E0F3DE682F606406C0853039F480E048
:10042000ECDE682F606280E0C3DE0895843031F432
:1004300080E0E3DE682F606180E0BADE0895882303
:1004400031F080E0DADE682F646080E0B1DE08958C
:1004500080E0D3DE682F677F80E0AADE089580E029
:10046000CCDE682F686080E0A3DE08951F93182F0C
:1004700083E0C3DE182B83E0612F9ADE1F9108957D
:100480000F931F93082F86E0B8DE10E098012870C4
:10049000307043E0220F331F4A95E1F795E0000FDB
:1004A000111F9A95E1F70072022B082B86E0602F4E
:1004B0007FDE1F910F9108951F93182F86E09DDE18
:1004C000110F182B86E0612F73DE1F9108951F9383
:1004D000182F85E092DE182B85E0612F69DE1F91D1
:1004E000089580E08ADE682F6D7F80E061DEC69827
:1004F000089580E082DE682F626080E059DEC69851
:1005000080ED97E028EC30E0F9013197F1F70197A1
:10051000D9F70895EEDF48DF0895FF920F931F93F8
:100520008C01F62EE6DFC8016F2D2BDE4ADFC69A5E
:100530008AE18A95F1F7C6981F910F91FF9008956F
:100540000F931F93CF93DF93EB01142FC79830D0F5
:10055000082F04C08FEF2CD0899311501123D1F7AD
:10056000C79A802FDF91CF911F910F91089580E05E
:1005700090E008956E9A6C9A87B3886287BB08955D
:10058000FC0180818FB9779BFECF662319F03196ED
:100590006150F7CF0895FC019FEF9FB9779BFECF85
:1005A0008FB18083662319F031966150F6CF08959C
:0E05B0008FB9779BFECF8FB10895F894FFCFDF
:0205BE006400D7
:00000001FF
