:1000000012C0C6C02BC02AC029C028C027C026C025
:1000100025C024C023C022C021C020C01FC01EC0D4
:100020001DC01CC01BC011241FBECFE5D4E0DEBF25
:10003000CDBF10E0A0E6B0E0E4E4F7E002C0059038
:100040000D92A236B107D9F710E0A2E6B0E001C0E8
:100050001D92A738B107E1F74ED372C3D1CF81E02B
:1000600080936200089581E0809363000895C798AB
:100070008FEF61D3C79A0895C79881EE5CD3C79A72
:100080000895C79882EE57D3C79A0895C698F4DFAB
:10009000F8DF10926500109264000895EF92FF92CD
:1000A0000F931F93F82EC79881E645D3E82E0EC014
:1000B00010916000009161008FEF3DD3E12FF02F90
:1000C0008193F0936100E0936000FA94FF2081F740
:1000D000C79A8E2D1F910F91FF90EF9008950F9367
:1000E0001F93CF93DF93EC01162FC79888EA23D391
:1000F000082F03C089911FD311501123D9F7C79A34
:10010000802FDF91CF911F910F9108950F931F932F
:10011000CF93DF93EC01162FC79880EA0CD3082FFA
:1001200003C0899108D311501123D9F7C79A802FA2
:10013000DF91CF911F910F9108950F931F93062F79
:10014000C7988062F8D2182F802FF5D2C79A812FD6
:100150001F910F9108950F931F93CF93DF93EB019E
:10016000142FC7988062E7D2082F03C08991E3D289
:1001700011501123D9F7C79A802FDF91CF911F918A
:100180000F910895C798D7D28FEFD5D2C79A089507
:100190001F920F920FB60F9211242F933F934F93FC
:1001A0005F936F937F938F939F93AF93BF93CF93FF
:1001B000DF93EF93FF935BDFC82F86FF0EC082E0D3
:1001C00090E0909365008093640081E080936200EA
:1001D00080E6D8DF8093660061DFC5FF09C084E058
:1001E00090E0909365008093640081E080936300C9
:1001F000C4FF06C085E090E09093650080936400A2
:10020000FF91EF91DF91CF91BF91AF919F918F912E
:100210007F916F915F914F913F912F910F900FBE02
:100220000F901F90189587E1ADDF8270089587E1E8
:10023000A9DF807208958DE1A5DF682F6E7F8DE1C3
:100240007CDF08958DE19EDF682F61608DE175DFB1
:1002500008958DE197DF682F6D7F8DE16EDF089542
:100260008DE190DF682F62608DE167DF08958DE199
:1002700089DF682F6B7F8DE160DF08958DE182DF7C
:10028000682F64608DE159DF0895882329F48CE19B
:1002900079DF682F6E7F1BC0813029F48CE172DF1B
:1002A000682F6D7F14C0823029F48CE16BDF682FDA
:1002B0006B7F0DC0833029F48CE164DF682F677F8A
:1002C00006C0843039F48CE15DDF682F6F7E8CE1ED
:1002D00034DF0895853031F48CE154DF682F6F7D71
:1002E0008CE12BDF0895882329F48CE14BDF682F04
:1002F00061601BC0813029F48CE144DF682F6260AB
:1003000014C0823029F48CE13DDF682F64600DC099
:10031000833029F48CE136DF682F686006C08430B2
:1003200039F48CE12FDF682F60618CE106DF0895DE
:10033000853031F48CE126DF682F60628CE1FDDED0
:10034000089589E01FDF089586E01CDF682F60684C
:1003500086E0F3DE08951F93182F84E013DF1295D3
:10036000107F182B84E0612FE8DE1F9108951F9302
:10037000182F84E007DF182B84E0612FDEDE1F9149
:100380000895882329F482E0FDDE682F6E7F1AC06D
:10039000813029F482E0F6DE682F6D7F13C0823051
:1003A00021F4F0DE682F6B7F0DC0833029F482E0EA
:1003B000E9DE682F677F06C0843039F482E0E2DE30
:1003C000682F6F7E82E0B9DE0895853031F482E0D7
:1003D000D9DE682F6F7D82E0B0DE0895882329F48E
:1003E00082E0D0DE682F61601AC0813029F482E09B
:1003F000C9DE682F626013C0823021F4C3DE682F2B
:1004000064600DC0833029F482E0BCDE682F686030
:1004100006C0843039F482E0B5DE682F606182E086
:100420008CDE0895853031F482E0ACDE682F6062A6
:1004300082E083DE0895882329F481E0A3DE682F1B
:100440006E7F1AC0813021F49DDE682F6D7F14C04D
:10045000823029F481E096DE682F6B7F0DC08330F7
:1004600029F481E08FDE682F677F06C0843039F47D
:1004700081E088DE682F6F7E81E05FDE0895853041
:1004800031F481E07FDE682F6F7D81E056DE0895D4
:10049000882329F481E076DE682F61601AC08130FC
:1004A00021F470DE682F626014C0823029F481E08C
:1004B00069DE682F64600DC0833029F481E062DE5C
:1004C000682F686006C0843039F481E05BDE682FF5
:1004D000606181E032DE0895853031F481E052DEE2
:1004E000682F606281E029DE0895C69880E04ADEC8
:1004F000682F616080E021DE84E091E00197F1F7F0
:10050000C69A0895C69880E03DDE682F6E7F80E031
:1005100014DE84E091E00197F1F70895863029F424
:1005200080E030DE682F6F7B06C0853039F480E0D4
:1005300029DE682F6F7D80E000DE0895843031F47D
:1005400080E020DE682F6F7E80E0F7DD0895863042
:1005500029F480E017DE682F606406C0853039F426
:1005600080E010DE682F606280E0E7DD089584306F
:1005700031F480E007DE682F606180E0DEDD089501
:10058000882331F080E0FEDD682F646080E0D5DDF7
:10059000089580E0F7DD682F677F80E0CEDD089565
:1005A00080E0F0DD682F686080E0C7DD08951F936C
:1005B000182F83E0E7DD182B83E0612FBEDD1F914C
:1005C00008950F931F93082F86E0DCDD10E023E0F1
:1005D000000F111F2A95E1F7602F6870000F111F9F
:1005E000000F111F0072602B682B86E0A6DD1F91A3
:1005F0000F9108951F93182F86E0C4DD110F182B5B
:1006000086E0612F9ADD1F9108951F93182F85E0D2
:10061000B9DD182B85E0612F90DD1F91089580E0F2
:10062000B1DD682F6D7F80E088DDC698089580E099
:10063000A9DD682F626080E080DDC69880ED97E0DC
:1006400028EC30E0F9013197F1F70197D9F70895D7
:10065000EEDF4BDF81E090E09093650080936400D3
:100660000895FF920F931F938C01F62EE0DFC801CF
:100670006F2D4CDD47DFC69A8AE18A95F1F7C6985F
:1006800083E090E090936500809364001F910F9148
:10069000FF9008950F931F93CF93DF93EB01142FD7
:1006A000C79849D0082F04C08FEF45D089931150C7
:1006B0001123D1F7C79A802FDF91CF911F910F910E
:1006C000089508950895CDDF8091640090916500AC
:1006D000049711F4BDDF0895FFCFA9DF8AE195DF0C
:1006E00087E035DF80E0D4DE80E078DEC7DD80E0C3
:1006F000FADDAEDF0895F1DFFFCF6E9A6C9A87B313
:10070000886287BB0895FC0180818FB9779BFECFFB
:10071000662319F031966150F7CF0895FC019FEFE1
:100720009FB9779BFECF8FB18083662319F03196F6
:100730006150F6CF08958FB9779BFECF8FB10895A2
:04074000F894FFCF5B
:0207440067004C
:00000001FF
