:1000000012C069C02BC02AC029C028C027C026C082
:1000100025C024C023C022C021C020C01FC01EC0D4
:100020001DC01CC01BC011241FBECFE5D4E0DEBF25
:10003000CDBF10E0A0E6B0E0E8EBF2E002C0059032
:100040000D92A236B107D9F710E0A2E6B0E001C0E8
:100050001D92A438B107E1F707D12CC1D1CF81E0BF
:1000600080936200089581E0809363000895C798AB
:100070008FEF1BD1C79A0895C79881EE16D1C79A02
:100080000895C79882EE11D1C79A0895C698F4DFF3
:10009000F8DF0895EF92FF920F931F93F82EC79801
:1000A00081E603D1E82E0EC010916000009161003E
:1000B0008FEFFBD0E12FF02F8193F0936100E0935D
:1000C0006000FA94FF2081F7C79A8E2D1F910F913F
:1000D000FF90EF9008951F920F920FB60F92112488
:1000E0002F933F934F935F936F937F938F939F9340
:1000F000AF93BF93CF93DF93EF93FF93B8DFC82FF6
:1001000086FF05C081E08093620080E2C3DFC5FF07
:1001100003C081E080936300FF91EF91DF91CF9165
:10012000BF91AF919F918F917F916F915F914F910F
:100130003F912F910F900FBE0F901F9018950F9326
:100140001F93CF93DF93EC01162FC79880EAADD0B1
:10015000082F03C08991A9D011501123D9F7C79A4C
:10016000802FDF91CF911F910F9108950F931F93CF
:10017000062FC798806299D0182F802F96D0C79AE3
:10018000812F1F910F9108950F931F93CF93DF93AA
:10019000EB01142FC798806288D0082F03C0899183
:1001A00084D011501123D9F7C79A802FDF91CF91B6
:1001B0001F910F910895C79878D08FEF76D0C79A86
:1001C0000895C69880E0F7DF682F616080E0CEDF99
:1001D00084E091E00197F1F7C69A089580E0EBDFA3
:1001E000682F6D7F80E0C2DF089580E0E4DF682F34
:1001F000626080E0BBDF80ED97E028EC30E0F90141
:100200003197F1F70197D9F70895FF920F931F9354
:100210008C01F62EEADFC8016F2D91DF80E0CBDF85
:10022000682F6E7F80E0A2DFC69A8AE18A95F1F797
:10023000C6981F910F91FF9008950F931F93CF932E
:10024000DF93EB01142FC79830D0082F04C08FEF35
:100250002CD0899311501123D1F7C79A802FDF91A9
:10026000CF911F910F91089580E090E008956E9ACC
:100270006C9A87B3886287BB0895FC0180818FB92F
:10028000779BFECF662319F031966150F7CF089522
:10029000FC019FEF9FB9779BFECF8FB180836623D0
:1002A00019F031966150F6CF08958FB9779BFECF44
:0802B0008FB10895F894FFCF0F
:0202B8006400E0
:00000001FF
