:1000000012C0C2C02BC02AC029C028C027C026C029
:1000100025C024C023C022C021C020C01FC01EC0D4
:100020001DC01CC01BC011241FBECFE5D4E0DEBF25
:10003000CDBF10E0A0E6B0E0ECECF6E002C0059029
:100040000D92A236B107D9F710E0A2E6B0E001C0E8
:100050001D92A438B107E1F711D336C3D1CF81E0A7
:1000600080936200089581E0809363000895C798AB
:100070008FEF25D3C79A0895C79881EE20D3C79AEA
:100080000895C79882EE1BD3C79A0895C698F4DFE7
:10009000F8DF0895EF92FF920F931F93F82EC79801
:1000A00081E60DD3E82E0EC0109160000091610032
:1000B0008FEF05D3E12FF02F8193F0936100E09350
:1000C0006000FA94FF2081F7C79A8E2D1F910F913F
:1000D000FF90EF9008950F931F93CF93DF93EC0160
:1000E000162FC79888EAEBD2082F03C08991E7D270
:1000F00011501123D9F7C79A802FDF91CF911F910B
:100100000F9108950F931F93CF93DF93EC01162F58
:10011000C79880EAD4D2082F03C08991D0D2115059
:100120001123D9F7C79A802FDF91CF911F910F919B
:1001300008950F931F93062FC7988062C0D2182F7F
:10014000802FBDD2C79A812F1F910F9108950F93D1
:100150001F93CF93DF93EB01142FC7988062AFD228
:10016000082F03C08991ABD211501123D9F7C79A38
:10017000802FDF91CF911F910F910895C7989FD243
:100180008FEF9DD2C79A08951F920F920FB60F92CC
:1001900011242F933F934F935F936F937F938F938C
:1001A0009F93AF93BF93CF93DF93EF93FF935FDF63
:1001B000C82F86FF06C081E08093620080E6DEDF04
:1001C00069DFC5FF03C081E080936300FF91EF9179
:1001D000DF91CF91BF91AF919F918F917F916F915F
:1001E0005F914F913F912F910F900FBE0F901F90F5
:1001F000189587E1C3DF8270089587E1BFDF8072C1
:1002000008958DE1BBDF682F6E7F8DE192DF089549
:100210008DE1B4DF682F61608DE18BDF08958DE1A2
:10022000ADDF682F6D7F8DE184DF08958DE1A6DF5E
:10023000682F62608DE17DDF08958DE19FDF682F7B
:100240006B7F8DE176DF08958DE198DF682F646024
:100250008DE16FDF0895882329F48CE18FDF682F0B
:100260006E7F1BC0813029F48CE188DF682F6D7FA1
:1002700014C0823029F48CE181DF682F6B7F0DC0C0
:10028000833029F48CE17ADF682F677F06C08430E1
:1002900039F48CE173DF682F6F7E8CE14ADF0895BB
:1002A000853031F48CE16ADF682F6F7D8CE141DFAE
:1002B0000895882329F48CE161DF682F61601BC0F9
:1002C000813029F48CE15ADF682F626014C08230DB
:1002D00029F48CE153DF682F64600DC0833029F46A
:1002E0008CE14CDF682F686006C0843039F48CE103
:1002F00045DF682F60618CE11CDF0895853031F4A3
:100300008CE13CDF682F60628CE113DF089589E0A7
:1003100035DF089586E032DF682F606886E009DF08
:1003200008951F93182F84E029DF1295107F182B52
:1003300084E0612FFEDE1F9108951F93182F84E043
:100340001DDF182B84E0612FF4DE1F9108958823B0
:1003500029F482E013DF682F6E7F1AC0813029F400
:1003600082E00CDF682F6D7F13C0823021F406DF3E
:10037000682F6B7F0DC0833029F482E0FFDE682F89
:10038000677F06C0843039F482E0F8DE682F6F7E24
:1003900082E0CFDE0895853031F482E0EFDE682F11
:1003A0006F7D82E0C6DE0895882329F482E0E6DED0
:1003B000682F61601AC0813029F482E0DFDE682F87
:1003C000626013C0823021F4D9DE682F64600DC0F2
:1003D000833029F482E0D2DE682F686006C0843062
:1003E00039F482E0CBDE682F606182E0A2DE0895FE
:1003F000853031F482E0C2DE682F606282E099DEEF
:100400000895882329F481E0B9DE682F6E7F1AC031
:10041000813021F4B3DE682F6D7F14C0823029F45F
:1004200081E0ACDE682F6B7F0DC0833029F481E062
:10043000A5DE682F677F06C0843039F481E09EDE38
:10044000682F6F7E81E075DE0895853031F481E09C
:1004500095DE682F6F7D81E06CDE0895882329F496
:1004600081E08CDE682F61601AC0813021F486DE65
:10047000682F626014C0823029F481E07FDE682F2B
:1004800064600DC0833029F481E078DE682F6860F5
:1004900006C0843039F481E071DE682F606181E04C
:1004A00048DE0895853031F481E068DE682F6062AF
:1004B00081E03FDE0895C69880E060DE682F6160CD
:1004C00080E037DE84E091E00197F1F7C69A089565
:1004D000C69880E053DE682F6E7F80E02ADE84E0DD
:1004E00091E00197F1F70895863029F480E046DE27
:1004F000682F6F7B06C0853039F480E03FDE682FBF
:100500006F7D80E016DE0895843031F480E036DEC1
:10051000682F6F7E80E00DDE0895863029F480E03C
:100520002DDE682F606406C0853039F480E026DE59
:10053000682F606280E0FDDD0895843031F480E052
:100540001DDE682F606180E0F4DD0895882331F0BE
:1005500080E014DE682F646080E0EBDD089580E0C9
:100560000DDE682F677F80E0E4DD089580E006DE21
:10057000682F686080E0DDDD08951F93182F83E009
:10058000FDDD182B83E0612FD4DD1F9108950F93BB
:100590001F93082F86E0F2DD10E09801287030707C
:1005A00043E0220F331F4A95E1F795E0000F111F3A
:1005B0009A95E1F70072022B082B86E0602FB9DDD7
:1005C0001F910F9108951F93182F86E0D7DD110F0B
:1005D000182B86E0612FADDD1F9108951F93182F12
:1005E00085E0CCDD182B85E0612FA3DD1F910895F8
:1005F00080E0C4DD682F6D7F80E09BDDC6980895A4
:1006000080E0BCDD682F626080E093DDC69880EDFD
:1006100097E028EC30E0F9013197F1F70197D9F72D
:100620000895EEDF48DF0895FF920F931F938C012A
:10063000F62EE6DFC8016F2D65DD4ADFC69A8AE136
:100640008A95F1F7C6981F910F91FF9008950F9327
:100650001F93CF93DF93EB01142FC79830D0082F4F
:1006600004C08FEF2CD0899311501123D1F7C79A72
:10067000802FDF91CF911F910F91089580E090E03E
:1006800008956E9A6C9A87B3886287BB0895FC01BF
:1006900080818FB9779BFECF662319F03196615028
:1006A000F7CF0895FC019FEF9FB9779BFECF8FB1E5
:1006B0008083662319F031966150F6CF08958FB983
:0C06C000779BFECF8FB10895F894FFCF18
:0206CC006400C8
:00000001FF
